:020000020000FC
:100000000FC01895189518950C942D0018951895F3
:100010001895189518951895189518951895189578
:100020000000000000000000662708E00EBF0FE59A
:100030000DBF0FEF07BB00E008BB01BB02BB04BB59
:1000400005BB00E80BBF05B70AE005BF78940027A1
:100050000000000000000000FBCF00E00BBF1160BB
:100060000E9497000E94990010E00E9497000E9451
:1000700099000E9499000E9499000E9499000E9494
:1000800099000E9499000E9499000E9499000E9484
:1000900099000E9499000E9499000E9499000E9474
:1000A00099000E9499000E9499000E94990000E81E
:1000B0000BBF18950F931F932F930027112722270B
:1000C0000A9500000000000000000000000002137C
:1000D000F7CF00271A950000000000000000000084
:1000E000000000001213ECCF2F911F910F91089583
:1000F0000E94A00038E00E94990000B30870001F21
:10010000001F001F001F001F17953A95A1F70E94BE
:10011000990000B3087038E0031739F40E94A0007A
:100120000E9497000E94A000089515E5089518BB4D
:1001300008952DEC2A95000000000000D9F70895DD
:0E0140002AE02A95000000000000D9F708957B
:00000001FF
