:020000020000FC
:1000000010C0189518951895189518951895189565
:100010001895189518951895189518951895189578
:10002000189508E00EBF0FE50DBF0FEF07BB08BB2B
:100030000E9456000E94560000E008BB05E104BB88
:100040000FEF05BB0E942B000E9445000E94540048
:100050000E945600F7CF0BEF3BEF05BB0E94560006
:1000600003B3031789F40EEF3EEF05BB0E94560061
:1000700003B3031749F40FEE3FEE05BB0E94560091
:1000800003B3031709F4E7CF0895F0E0EEEC662719
:100090000F773491E395301711F4062F0895639587
:1000A000EA3DB1F70FEF089508BB08950F933F9312
:1000B0002F930027332722270A950217E9F70027F5
:1000C0003A953217C9F72F913F910F91089576799C
:0A00D0007C6D3B3E2F5B5E4F7367B3
:00000001FF
