:020000020000FC
:1000000010C0189518951895189518951895189565
:100010001895189518951895189518951895189578
:100020001895000000000027332711272227662794
:100030000FE50DBF08E00EBF00E807BB00E808BBF6
:1000400000E004BB00E005BB0E94610041E10E94AA
:1000500013010E94530000000000000000000E94F5
:100060003200F9CF03B3007830E8031711F400E051
:1000700008950E945A0038E00E94530003B30078AC
:10008000001F17953A95C1F70E94530003B30078FB
:1000900030E8031731F4412F0E9413010E945300EE
:1000A000089515E508952DEC2A9500000000000044
:1000B000D9F708952AE02A95000000000000A1F772
:1000C00008950E9402010E9402010E9402010E9402
:1000D00002010E9402010E9402010E9402010E948C
:1000E00002010E9402010E9402010E9402010E947C
:1000F00002010E9402010E9402010E9402010E946C
:1001000002010E9402010E9402010E9402010E945B
:1001100002010E9402010E9402010E9402010E944B
:1001200002010E9402010E9402010E9402010E943B
:1001300002010E9402010E9402010E9402010E942B
:1001400002010E9402010E9402010E9402010E941B
:1001500002010E9402010E9402010E9402010E940B
:1001600002010E9402010E9402010E9402010E94FB
:1001700002010E9402010E9402010E9402010E94EB
:1001800002010E9402010E9402010E9402010E94DB
:1001900002010E9402010E9402010E9402010E94CB
:1001A00002010E9402010E9402010E9402010E94BB
:1001B00002010E9402010E9402010E9402010E94AB
:1001C00002010E9402010E9402010E9402010E949B
:1001D00002010E9402010E9402010E9402010E948B
:1001E00002010E9402010E9402010E9402010E947B
:1001F00002010E9402010E9402010E9402010E946B
:10020000020108950F931F930F92002400271127D6
:100210000A950011FDCF00271A951011F9CF0F9004
:100220001F910F91089555270FEF08BB0E945300AF
:100230000E94530000E008BB3F9338E00E94530047
:100240004795579558BB3A95C9F73F910E9453007F
:0E0250000FEF08BB0E9453000E945300089558
:00000001FF
