:020000020000FC
:1000000010C0189518951895189518951895189565
:100010001895189518951895189518951895189578
:10002000189500000000000000000FE50DBF08E07B
:100030000EBF00E807BB08BB05E104BB0FEF05BB23
:10004000000000000E94BF000E945D000E94770037
:100050003F933AE0031721F40AE2402F0C943A0050
:100060003BE0031721F403E2402F0C943A0030E305
:10007000030F402F3F910E9441000E949300000017
:10008000DFCF55270FEF08BB0E948C000E948C0029
:1000900000E008BB3F9338E00E948C0047955795DD
:1000A00058BB3A95C9F73F910E948C000FEF08BBEF
:1000B0000E948C000E948C0008950BEF3BEF05BB63
:1000C0000E94BF0003B3031789F40EEF3EEF05BB98
:1000D0000E94BF0003B3031749F40FEE3FEE05BBC8
:1000E0000E94BF0003B3031709F4E7CF0895F1E0BE
:1000F000ECE066270F773491E395301711F4062F63
:1001000008956395E831B1F70FEF089576797C6D26
:100110003B3E2F5B5E4F73672DEC2A95000000007D
:100120000000D9F708950E94AE000E94AE000E9420
:10013000AE000E94AE000E94AE000E94AE000E947F
:10014000AE000E94AE000E94AE000E94AE000E946F
:10015000AE000E94AE000E94AE0008950F931F9360
:100160000F920024002711270A950011FDCF0027C8
:100170001A951011F9CF0F901F910F9108950E94B9
:04018000AE00089530
:00000001FF
