:020000020000FC
:1000000010C0189518951895189518951895189565
:100010001895189518951895189518951895189578
:1000200018950000000000273327112722270FE52D
:100030000DBF08E00EBF0FEF07BB0FEF08BB00E0DE
:1000400004BB00E005BB00000000000000000E94AF
:100050002A00F9CF03B3007830E8031711F400E069
:1000600008950E94550038E00E944E0003B30078C6
:10007000001F17953A95C1F70E944E0003B3007810
:1000800030E8031739F40E9455000E944C000E948A
:100090005500089515E5089518BB08952DEC2A958F
:1000A000000000000000D9F708952AE02A9500001A
:0800B00000000000A1F7089513
:00000001FF
