:020000020000FC
:1000000010C0189518951895189518951895189565
:100010001895189518951895189518951895189578
:1000200018950000000000273327112722270FE52D
:100030000DBF08E00EBF0FEF07BB0FEF08BB00E0DE
:1000400004BB00E005BB00000000000000000E94AF
:100050002A00F9CF03B3007830E8031711F400E069
:1000600008950E946C0038E00E94650003B3007898
:10007000001F17953A95C1F70E94650003B30078F9
:1000800030E8031739F40E946C000E944C000E9473
:100090006C00089515E5089503E2011719F41BE0BB
:1000A0000C9463000AE2011719F41AE00C9463003F
:1000B00009E2011738F400E4101720F400E3101BE4
:1000C0000C9463001FEF18BB08952DEC2A950000D7
:1000D00000000000D9F708952AE02A9500000000EA
:0600E0000000A1F70895E5
:00000001FF
