:020000020000FC
:100000000FC0189518951895189518951895189566
:100010001895189518951895189518951895189578
:100020000FE50DBF08E00EBF00E807BB0E944900C6
:1000300000E808BB13E400000000000000000E947C
:1000400050000E9450000E9450000E942D000E940B
:10005000490013E40E945000EECF22270FEF08BBA7
:100060000E9449000E94490000E008BB3F9338E02D
:100070000E9449001795279528BB3A95C9F73F91EB
:100080000E9449000FEF08BB0E9449000E944900EE
:1000900008954DEC4A95000000000000D9F708953E
:1000A0000E94F1000E94F1000E94F1000E94F10004
:1000B0000E94F1000E94F1000E94F1000E94F100F4
:1000C0000E94F1000E94F1000E94F1000E94F100E4
:1000D0000E94F1000E94F1000E94F1000E94F100D4
:1000E0000E94F1000E94F1000E94F1000E94F100C4
:1000F0000E94F1000E94F1000E94F1000E94F100B4
:100100000E94F1000E94F1000E94F1000E94F100A3
:100110000E94F1000E94F1000E94F1000E94F10093
:100120000E94F1000E94F1000E94F1000E94F10083
:100130000E94F1000E94F1000E94F1000E94F10073
:100140000E94F1000E94F1000E94F1000E94F10063
:100150000E94F1000E94F1000E94F1000E94F10053
:100160000E94F1000E94F1000E94F1000E94F10043
:100170000E94F1000E94F1000E94F1000E94F10033
:100180000E94F1000E94F1000E94F1000E94F10023
:100190000E94F1000E94F1000E94F1000E94F10013
:1001A0000E94F1000E94F1000E94F1000E94F10003
:1001B0000E94F1000E94F1000E94F1000E94F100F3
:1001C0000E94F1000E94F1000E94F1000E94F100E3
:1001D0000E94F1000E94F1000E94F1000E94F100D3
:1001E00008950F931F930F920024002711270A955B
:1001F0000011FDCF00271A951011F9CF0F901F9114
:040200000F910895BD
:00000001FF
